{"abi":[{"type":"function","name":"decimals","inputs":[],"outputs":[{"name":"","type":"uint256","internalType":"uint256"}],"stateMutability":"pure"}],"bytecode":{"object":"0x6080604052348015600e575f80fd5b50607480601a5f395ff3fe6080604052348015600e575f80fd5b50600436106026575f3560e01c8063313ce56714602a575b5f80fd5b5f1960405190815260200160405180910390f3fea2646970667358221220244bd446356fabf8bc8c64d4733038e5c06e9d83c2e4225a8663d081b32366d364736f6c63430008140033","linkReferences":{}},"methodIdentifiers":{"decimals()":"313ce567"},"id":120}